:020000040800F2
:1000000088040020E9130008C5130008C71300087E
:10001000C9130008CB130008CD130008000000002E
:10002000000000000000000000000000CF130008E6
:10003000D113000800000000D3130008D5130008F6
:100040000D140008111400081514000819140008F4
:100050001D140008211400082514000829140008A4
:100060002D14000831140008351400083914000854
:100070003D14000841140008451400084914000804
:100080004D140008511400085514000859140008B4
:100090005D14000861140008651400086914000864
:1000A0006D14000871140008751400087914000814
:1000B0007D140008811400088514000889140008C4
:1000C0008D14000891140008951400089914000874
:1000D0009D140008A1140008A5140008A914000824
:1000E000AD140008B1140008B5140008B9140008D4
:1000F000BD140008C1140008C5140008C914000884
:10010000CD140008D1140008D5140008D914000833
:10011000DD140008E1140008E5140008E9140008E3
:10012000ED140008F1140008F5140008F914000893
:10013000FD14000800000000000000000115000888
:1001400005150008091500080D150008111500080F
:1001500015150008191500081D15000821150008BF
:1001600025150008291500082D150008311500086F
:1001700035150008391500083D150008000000007D
:100180000000000041150008000000000000000011
:100190004515000800000000000000004915000897
:1001A0000000000000000000000000004D150008E5
:1001B0005115000855150008591500085D1500086F
:1001C000611500080020086000F0D8B92DE9504101
:1001D000DFF89C43DFF890636068DFF8908300F0FD
:1001E0000C00042804D0082804D00C2815D027E0DF
:1001F000404626E000F027F847BFC0F38816A8FB6A
:100200000601C0F38818A6FB080100F0BDF92168BB
:10021000C1F30141491C49000FE000F014F847BF49
:10022000C0F38816A8FB0601C0F38818A6FB0801D6
:1002300000F0AAF92168C1F30271B0FBF1F000E00F
:100240003046BDE8508100232268206841022068C2
:1002500002F03F0270472DE9F8430646BC4D307866
:10026000C1074AD500F078F904280DD000F074F9E0
:10027000082802D16868410206D400F06DF90C2804
:100280000BD16868410208D52868810335D57068AC
:10029000002840F0B780012056E17068B0F5803F3B
:1002A00004D1286840F48030286011E0B0F5A02F18
:1002B000286806D140F480202860296841F4803104
:1002C00005E020F480302860296821F4802129602D
:1002D000706868B100F052F904462868810300F1A3
:1002E000918000F04BF9001B6528F6D303202BE129
:1002F00000F044F904462868810340F1838000F04F
:100300003DF9001B6528F6D3F0E700F037F9001B34
:10031000022840F2AA80E9E7F06870B10121396053
:1003200000F02CF904462868810700F1CE8000F027
:1003300025F9001B0228F6D9D8E7386000F01EF92D
:1003400004462968880760D500F018F9001B0228C8
:10035000F7D9CBE7FFF737FF0446686F810779D5F8
:1003600000F00CF9001B0228F7D9BFE70528286F19
:1003700006D140F004002867286F40F0010005E036
:10038000400840002867286F20F00400286741F2E9
:100390008938B06868B100F0F1F88146286F8107AC
:1003A00000F1A08000F0EAF8A0EB09004045F5D389
:1003B0009CE700F0E3F88146286F810740F19280C6
:1003C00000F0DCF8A0EB09004045F5D38EE700F023
:1003D000D5F8001B022840F2988087E700F0CEF89D
:1003E000001B022840F2AB8080E700F0B9F8044619
:1003F0002868810140F1A78000F0C0F8001B0228A6
:10040000F6D973E730785B4F810721D5A86810F0E3
:100410000C0F0FD000F0A0F8082802D16868410244
:1004200008D500F099F80C287FF476AF686841028F
:100430003FF572AF2868810703D5F06801287FF483
:100440002AAF2968306921F0F80141EAC00129602A
:10045000317808070DD57069474900283FF47AAF15
:1004600001220A6000F08AF80446686F81077FF570
:100470004CAF307841073AD5286C0024C1000AD42B
:1004800000940124296C41F080512964286C00F00B
:10049000805000900098DFF8BC80D8F80000C105BB
:1004A0001BD4D8F8000040F48070C8F8000000F0B9
:1004B00065F88146D8F80000C1050ED400F05EF85A
:1004C000A0EB09000228F5D910E72868316920F06F
:1004D000F80040EAC1002860BAE7B06801287FF45C
:1004E00045AF49E71CB1286C20F080502864B06902
:1004F00048B3A96801F00C0108293FF4CCAE0228EA
:100500007FF473AF00F02CF80446286881013FF5B2
:100510005EAFF269306A716A0243B06A400842EA2B
:100520008112401E42EA0042F06A316B42EA0062E8
:1005300042EA01726A60012000F013F8044628685C
:1005400081017FF54BAF0020BDE8F2830000000081
:100550000038024000700040A86800F00C007047AE
:100560000020386600F00AB80024F40000127A0077
:100570000438024000004742800E4742014840686C
:10058000704700BF08000020D3BBD9B1B2F5803F4F
:100590005BD2022A1ED98C46B1FBF2F102FB11C3D9
:1005A0001B0443EA1043B3FBF2FC02FB1C3380B292
:1005B00040EA0343B3FBF2F002FB103240EA0C4086
:1005C00000237047022A05D98446B0FBF2F002FBF3
:1005D00010C270474AB105D100F0010249085FEA34
:1005E0003000704700220023704700F06DB80B0008
:1005F0000200002100207047F7D30022002370473B
:10060000904271EB030CF2D370B5B1FA81F4B3FAF6
:1006100083F52C1BA340C4F1200532FA05F63343C1
:10062000A2405FF00046E64002E05B085FEA32026B
:10063000841A71EB030524BF204629467641F4D382
:1006400002000B003000002170BD70B5B1FA81F4DA
:10065000B2FA82F5C4F120046419B4F12006DAD3A9
:10066000B2405FF00044F440002502E052085FEA27
:100670003303C61A71EB020E24BF30467146644143
:100680006D41F3D302000B002000290070BD30B48F
:10069000002513E050F8042BD30744BFA9F1010350
:1006A0009A18091F042942F8045BFAD213468C07F2
:1006B00044BF15809B1CC90748BF1D7050F8041B20
:1006C0000029E7D130BC7047704700002DE9F8439E
:1006D000754F0646387E0128894614461D4608BFD8
:1006E000022028D0012038764CF25038404600F0E5
:1006F0003CF801001DD1484622462B461EB9D1B216
:1007000000F08CF80DE0012E03D191B200F070F8EA
:1007100007E0022E03D1114600F061F801E000F07D
:100720004AF8404600F021F860490A685208520031
:100730000A6000213976BDE8F2835E49CA6800206C
:10074000002A00D4704710B55B4A5C4C0A600C600C
:10075000C968002948BF012010BD5448016841F014
:100760000041FFE701600020704770B504464E4924
:100770004F4E0020C861FFF701FF05463068C103F6
:100780000CD514F1010FF9D024B1FFF7F7FE401B8F
:100790008442F3D2032070BD002070BD3068C107D1
:1007A00044BF01203060316811F4F97FF4D000F0CB
:1007B0003FF8012070BD30B53C490C6824F440740A
:1007C0000C600D6845F440750D600C6844F0010440
:1007D0000C6040F8042BBFF36F8F036030BD10B581
:1007E00000F015F844F4007400F00BF8016010BD3F
:1007F00010B500F00CF844F4807400F002F80180A9
:1008000010BD1460136843F0010313607047274A5A
:10081000136823F4407313601468704730B5FFF712
:10082000F6FF1460156845F001051560017030BDD4
:100830001F491D480A68D30605D5C26942F0100257
:10084000C26110230B600A68930605D5C26942F0A5
:100850000802C26120230B600A68530605D5C269ED
:1008600042F00402C26140230B600A68130605D5FA
:10087000C26942F00202C26180230B600A68D3059C
:1008800006D5C26942F00102C2614FF480730B6069
:100890000A68930705D5C26942F02002C2610220AE
:1008A000086070470000000058000020103C024023
:1008B0000C3C0240043C024023016745AB89EFCD6C
:1008C0002DE9F84F0D464FF0000869490F2201232A
:1008D00004462E6803FA08F000EA0609814540F054
:1008E000BB804FEA480C032606FA0CF66FEA060EA8
:1008F0006E68012E18BF022E03D0112E18BF122EC3
:1009000011D1A668EF680EEA060607FA0CF73E4317
:10091000A660666826EA00006E68C6F3001606FA4E
:1009200008F630436060E068AE680EEA000006FA40
:100930000CF63043E0604FEA88006E68022E18BF64
:10094000122E12D14FEAD80604EB860600F01C07DF
:10095000D6F820A002FA07FB2AEA0B0AD5F810B055
:100960000BFA07F747EA0A07376226680EEA060716
:100970002E7906F0030606FA0CF63E4326606E68F2
:10098000F60069D5002600964FEA980C0E68DFF84D
:10099000E4E046F480460E6000F00C000E6806F4B9
:1009A00080460096009E5EF82C7002FA00F627EA58
:1009B0000606314FBC4208BF00271DD02F4FBC4256
:1009C00008BF012718D02E4FBC4208BF022713D002
:1009D0002C4FBC4208BF03270ED02B4FBC4208BF90
:1009E000042709D0294FBC4208BF052704D0284F4F
:1009F000BC420CBF0627072707FA00F030434EF829
:100A00002C006FEA090C234806680CEA060E6E6893
:100A1000F70348BF49EA0E0EC0F800E046680CEA4A
:100A2000060E6E68B70348BF49EA0E0EC0F804E030
:100A300086680CEA060E6E68F70248BF49EA0E0E99
:100A4000C0F808E0C6680CEA060E6E68B60248BF39
:100A500049EA0E0EC0F80CE008F10108B8F10F0FDA
:100A60007FF637AFBDE8F18F02B9090481617047A5
:100A700044380240083801400000024000040240AF
:100A800000080240000C0240001002400014024026
:100A900000180240003C014010B586B000F0BCF8E0
:100AA00000F05FF801A8142100F0D0F800200090B9
:100AB000514C5248016841F004010160026802F0A3
:100AC00004020092002200990092036843F0800320
:100AD0000360016801F080010091009900920368B1
:100AE00043F001030360016801F0010100910099E6
:100AF00000922021036843F002030360006800F0C5
:100B00000200009000982046FFF7AEFF4FF400501F
:100B10003B49019002910022039201A93948FFF755
:100B2000CFFE202101910122002103910491029224
:100B300001A92046FFF7C4FE3348344901604FF451
:100B4000E13200230C2142608360C3600361416194
:100B50008361C36100F07EF800F04EF900F044F9C3
:100B6000FEE700B593B006A8342100F06FF801A8A5
:100B7000142100F06BF80020009001232448016844
:100B800041F0805101600021006800F08050009029
:100B9000009820480091026822F4404242F48042CA
:100BA00002600222006800F44040009006A800990C
:100BB000069210210A910C9200210D9110224FF4FF
:100BC000A8710E920F9104220221099310921191A3
:100BD0001291FFF740FB022102910F204FF4805148
:100BE00001900022049103920592022101A800F0D5
:100BF0001BF913B000BD0000000002403038024075
:100C000000002110000802401800002000440040AD
:100C1000403802400070004080B50B48016841F444
:100C200000710160026842F480620260016841F470
:100C300080710160032000F0AAF9002000F0F0F9B3
:100C400000F00EFA002002BD003C0240002200F03D
:100C50005DBA000038B5040001D1012032BD00F0BA
:100C600021F808B900F022F800F012F800F023F89B
:100C7000FFE7416100F001F832BD2068C16841F42E
:100C80000051C1600020686020216970A970704720
:100C9000242068702068C16821F40051C16020469A
:100CA00000F013B804F13805687870470021297006
:100CB000204600F0F1B92068016921F490410161FA
:100CC0002068416921F02A017047D0B506466427A3
:100CD00032681169F06821F440510143116119240F
:100CE000D3682D48B168034030690B4371690343F1
:100CF000F0690B430343D3605169B06921F440713B
:100D000001435161F36925482549B3F5004F1FD1CF
:100D10008A4218BF824202D100F014F901E000F0CB
:100D200009F90246A4FB02017268D30F5200FFF7D3
:100D30002BFC00F037F8FF0032376420B7FBF0F0EF
:100D4000420002F4F87202EB011200F007001DE00D
:100D50008A4218BF824202D100F0F4F801E000F0AC
:100D6000E9F80246A4FB02017268930F9200FFF7B4
:100D70000BFC00F017F83F0132376420B7FBF0F0AE
:100D800000F0F00202EB011200F00F003168801851
:100D90008860D0BD00000000F369FFFF001401402F
:100DA000001001406421B0FBF1F107FB110770470F
:100DB00010B586B0FFF7C1FC002101910722039214
:100DC0000221059101220492694601A800F0B8F9B8
:100DD0000446FFF7C2FC002C03BF009810F1010F7E
:100DE0000120002006B010BD30B50C480C4990E839
:100DF0003C0081E83C0030BD10B5FFF7D9FF094C3D
:100E0000FFF79BFC20700023626804490220FFF773
:100E10005DFC2070BDE81040FFF79FBC0000060895
:100E200078000020000000202DE9F04104000F466A
:100E300078D0494E306800F00F00B84202D200F07E
:100E400073F86FD12068454D810712D5400703D54F
:100E5000A96841F4E051A9602078010703D5A8688A
:100E600040F46040A860A968A06821F0F001014347
:100E7000A9602178C8074DD56068012802D129688A
:100E80008A0305E0022818BF032803D129688A01D4
:100E900003D447E029688A0744D5A968890840EA4D
:100EA0008100A860FFF76AFB8046A868616800F0CF
:100EB0000C00B0EB810F2DD0FFF760FBA0EB08001A
:100EC00041F289318842F0D3032021E020784107A4
:100ED00005D5AA68E06822F4E0520243AA602178AE
:100EE000080706D5A968206921F4604141EAC001DC
:100EF000A960FFF76BF9AA6819491A4BC2F30312EC
:100F0000895CC84018601848006800F089F8002023
:100F1000BDE8F081306800F00F008742D6D200F0C3
:100F200003F8D3D00120F3E73770316801F00F01E7
:100F3000B94270470B480D4A006813680C49C3F367
:100F4000822206E00748094A006813680849C3F38B
:100F50004232895CC8407047003C02400038024081
:100F6000B8120008140000201000002008380240C9
:100F7000041400080901020002D424488154704777
:100F8000234B02F00F021A4402F8041C7047214B55
:100F900019684FF6FF020002114000F4E0600843B8
:100FA0001D4908431860704738B51A4B1C68C4F3D4
:100FB0000223C3F10704052C28BF04241D1D072D9F
:100FC00034BF0023DB1E012505FA04F4641E214012
:100FD000994005FA03F35B1E1A401143BDE8344003
:100FE000C8E710B5401EB0F1807F01D3012010BDCD
:100FF0000A4C60600F214FF0FF30FFF7BBFF00216C
:10100000A16007202060002010BD000000E400E087
:1010100018ED00E00CED00E00000FA0510E000E043
:1010200038B50D4D0D4B2A7804464FF47A71186887
:10103000B1FBF2F2B0FBF2F0FFF7D3FF50B9102C86
:1010400008D2002221464FF0FF30FFF7ADFFAC6021
:10105000002032BD012032BD080000201400002015
:1010600082B00020009000222448416841F4804171
:101070004160416801F48041009100990092036849
:1010800043F080530360006800F0805000900098A7
:10109000072002B0FFF77BBF38B586B0044601A831
:1010A0001421FFF7D3FD2468154DAC4224D1002054
:1010B000009000221348016941F400310161016987
:1010C00001F400310091009900920C21036843F073
:1010D000010303600222006800F001000090009804
:1010E00009480191029200210391032207210591F1
:1010F000049201A9FFF7E4FB07B030BD403802407D
:1011000000440040303802400000024000B500BFFB
:10111000130096469446103928BFA0E80C50FAD820
:101120005FEA417C28BF0CC048BF40F8042BC907C8
:1011300028BF20F8022B48BF00F8012B00BD00009B
:101140002DE9F047524E0446307E0128894608BFFB
:1011500002203CD0012030764CF2503A5046FFF746
:1011600004FB804680BB4FF0FF30C9F800002168C7
:10117000484D01290DD120696168C0B200F029F8FD
:101180005046FFF7F2FA8046286820F004002860F5
:1011900018E0A76800E07F1CE068A1680818874293
:1011A00010D22169C9B2384600F023F85046FFF743
:1011B000DCFA5FEA0008286820F0FA002860EAD02C
:1011C000C9F8007000F03BF8002030764046BDE8DA
:1011D000F08730490A6822F440720A6000020B6806
:1011E00043F004030B6040F480300A681043086049
:1011F000704710B500220B000AD0012908BF4FF438
:10120000807205D002290CBF4FF400724FF4407277
:1012100020490B6823F440730B60C0000C68224324
:101220000A6040F002000A6822F0F8020A600B68C7
:1012300018430860086840F48030086010BD164804
:1012400001688A050FD5016821F400710160026808
:1012500042F400620260016821F4006101600268EA
:1012600042F40072026001684A050FD5016821F45A
:1012700080610160026842F480520260016821F4DA
:1012800080510160026842F4806202607047000091
:1012900058000020103C0240003C02400448054A2F
:1012A000016841F4700101604FF000601060704708
:1012B00088ED00E008ED00E0000000000000000004
:1012C000010203040607080930B450F8041B79B181
:1012D0000268436802440830DC0744BFA9F10104F6
:1012E000E31852F8045B43F8045B091FF9D1ECE7FB
:1012F00030BC704710B5074979441831064C7C441E
:10130000163404E00A68081D114488470146A142CA
:10131000F8D110BD2C0000004C0000004EF68851A2
:10132000CEF20001086840F470000860BFF34F8FF0
:10133000BFF36F8F4FF00070E1EE100A70470000AE
:101340004FF3FFFF700000001800002000000000B5
:1013500079FFFFFF1800000054000000000000208B
:101360000000000000F00DF8002801D0FFF7C2FFD8
:10137000AFF300800020AFF30080FFF78DFB00F09B
:1013800002F80120704700F001B800000746384617
:1013900000F002F8FBE7000080B5AFF30080024ADE
:1013A00011001820ABBEFBE7260002000000000081
:1013B00080FC0A0001000000000000001000000096
:1013C0000024F4007047FEE7FEE7FEE7FEE7704703
:1013D0007047704700F000B80248416802788A18E8
:1013E00042607047080000200148804701480047DC
:1013F0009D120008F9130008AFF30080FFF78EFF7D
:10140000FFF7B0FF0000000001020304FFF7FEBF7A
:10141000FFF7FEBFFFF7FEBFFFF7FEBFFFF7FEBF00
:10142000FFF7FEBFFFF7FEBFFFF7FEBFFFF7FEBFF0
:10143000FFF7FEBFFFF7FEBFFFF7FEBFFFF7FEBFE0
:10144000FFF7FEBFFFF7FEBFFFF7FEBFFFF7FEBFD0
:10145000FFF7FEBFFFF7FEBFFFF7FEBFFFF7FEBFC0
:10146000FFF7FEBFFFF7FEBFFFF7FEBFFFF7FEBFB0
:10147000FFF7FEBFFFF7FEBFFFF7FEBFFFF7FEBFA0
:10148000FFF7FEBFFFF7FEBFFFF7FEBFFFF7FEBF90
:10149000FFF7FEBFFFF7FEBFFFF7FEBFFFF7FEBF80
:1014A000FFF7FEBFFFF7FEBFFFF7FEBFFFF7FEBF70
:1014B000FFF7FEBFFFF7FEBFFFF7FEBFFFF7FEBF60
:1014C000FFF7FEBFFFF7FEBFFFF7FEBFFFF7FEBF50
:1014D000FFF7FEBFFFF7FEBFFFF7FEBFFFF7FEBF40
:1014E000FFF7FEBFFFF7FEBFFFF7FEBFFFF7FEBF30
:1014F000FFF7FEBFFFF7FEBFFFF7FEBFFFF7FEBF20
:10150000FFF7FEBFFFF7FEBFFFF7FEBFFFF7FEBF0F
:10151000FFF7FEBFFFF7FEBFFFF7FEBFFFF7FEBFFF
:10152000FFF7FEBFFFF7FEBFFFF7FEBFFFF7FEBFEF
:10153000FFF7FEBFFFF7FEBFFFF7FEBFFFF7FEBFDF
:10154000FFF7FEBFFFF7FEBFFFF7FEBFFFF7FEBFCF
:10155000FFF7FEBFFFF7FEBFFFF7FEBFFFF7FEBFBF
:04156000FFF7FEBFD4
:04000005080013F9E3
:00000001FF
